:100000000C9470000C9498000C9498000C94980038
:100010000C9498000C9498000C9498000C94980000
:100020000C9498000C9498000C9498000C949800F0
:100030000C9498000C9498000C9498000C949800E0
:100040000C9460020C9498000C9498000C94980006
:100050000C9498000C9498000C9498000C949800C0
:100060000C9498000C949800560D630D880DAD0DFE
:10007000CC0DE60E02101A116B11A81114124512C4
:100080008C14641400000000240027002A000000E3
:100090000000250028002B0000000000230026009F
:1000A00029000404040404040404020202020202FB
:1000B000030303030303010204081020408001022C
:1000C00004081020010204081020000000080002AB
:1000D0000100000304070000000000000000941469
:1000E00011241FBECFEFD8E0DEBFCDBF12E0A0E0ED
:1000F000B1E0E4EEF2E302C005900D92AA3BB10735
:10010000D9F723E0AAEBB2E001C01D92A333B207F6
:10011000E1F710E0C0E7D0E004C02197FE010E94A3
:10012000D514CF36D107C9F70E94230B0C94701950
:100130000C9400000E94EA17EF92FF920F931F9316
:10014000CF93DF93EC017B018A018881998100972D
:1001500029F02A813B8124173507F8F4B8016F5F35
:100160007F4F0E942017009759F0998388831B8343
:100170000A832C813D81232B81F4FC0110820DC068
:1001800088819981009711F00E948816198218823F
:100190001D821C821B821A8207C01D830C83B7013B
:1001A000888199810E94F817CE01DF91CF911F912C
:1001B0000F91FF90EF900895FC01808191810C9444
:1001C0008816FC0111821082138212821582148219
:1001D0006115710551F0FB0101900020E9F731979D
:1001E000AF01461B570B0C949C000895CF92DF92F1
:1001F000EF92FF920F931F93CF93DF936C017A01DD
:100200008B01C0E0D0E0CE15DF0589F0D8016D91FB
:100210008D01D601ED91FC910190F081E02DC60198
:100220000995892B11F47E0102C02196ECCFC701FC
:10023000DF91CF911F910F91FF90EF90DF90CF90C2
:100240000895833081F028F4813099F08230A1F054
:1002500008958730A9F08830B9F08430D1F48091C6
:1002600080008F7D03C0809180008F778093800015
:10027000089584B58F7702C084B58F7D84BD0895BD
:100280008091B0008F7703C08091B0008F7D809304
:10029000B00008953FB7F894809113039091140330
:1002A000A0911503B091160326B5A89B05C02F3F5A
:1002B00019F00196A11DB11D3FBFBA2FA92F982F8C
:1002C0008827820F911DA11DB11DBC01CD0142E007
:1002D000660F771F881F991F4A95D1F708952FB78A
:1002E000F89460910F037091100380911103909125
:1002F00012032FBF0895CF93DF93282F30E0F90129
:10030000E653FF4F8491F901EA54FF4FD491F9016C
:10031000EE55FF4FC491CC2391F081110E94210131
:10032000EC2FF0E0EE0FFF1FE856FF4FA591B491C0
:10033000EC91ED2381E090E021F480E002C080E0C8
:1003400090E0DF91CF9108951F93CF93DF93282FF3
:1003500030E0F901E653FF4F8491F901EA54FF4F71
:10036000D491F901EE55FF4FC491CC23C9F0162F5B
:1003700081110E942101EC2FF0E0EE0FFF1FE257E8
:10038000FF4FA591B4918FB7F894111105C09C91BE
:10039000ED2FE095E92302C0EC91ED2BEC938FBF9C
:1003A000DF91CF911F910895CF93DF93EC0160E02F
:1003B0008E810E94A40161E08E810E94A40160E010
:1003C0008E810E94A4018BE891E00197F1F7DF9103
:1003D000CF910895CF93DF9390E0FC01EA54FF4F53
:1003E0002491FC01EE55FF4F8491882361F190E048
:1003F000880F991FFC01EC57FF4FC591D491FC0168
:10040000E257FF4FA591B491611109C09FB7F894CD
:100410008881209582238883EC912E230BC0623043
:1004200061F49FB7F8943881822F80958323888365
:10043000EC912E2B2C939FBF06C08FB7F894E881C8
:100440002E2B28838FBFDF91CF9108958F929F929B
:10045000AF92BF92CF92DF92EF92FF926B017C013D
:100460000E944A014B015C01C114D104E104F10472
:10047000F1F00E944A01DC01CB0188199909AA090F
:10048000BB09883E9340A105B10570F321E0C21A73
:10049000D108E108F10888EE880E83E0981EA11CBF
:1004A000B11CC114D104E104F10419F7DDCFFF90B0
:1004B000EF90DF90CF90BF90AF909F908F90089576
:1004C0001F920F920FB60F9211242F933F938F9389
:1004D0009F93AF93BF9380910F0390911003A091CE
:1004E0001103B091120330910E0323E0230F2D3737
:1004F00020F40196A11DB11D05C026E8230F029628
:10050000A11DB11D20930E0380930F039093100340
:10051000A0931103B09312038091130390911403DD
:10052000A0911503B09116030196A11DB11D8093F2
:10053000130390931403A0931503B0931603BF9174
:10054000AF919F918F913F912F910F900FBE0F9080
:100550001F901895CF92DF92EF92FF920F931F9307
:10056000CF93DF937C016C0187E0C80ED11CC0E003
:10057000D0E0062F10E0B8010C2E02C075956795EB
:100580000A94E2F76170F60181916F010E94A40163
:100590002196C430D10579F7C701DF91CF911F9122
:1005A0000F91FF90EF90DF90CF900C94D401CF92F9
:1005B000DF92EF92FF920F931F93CF93DF93EC01A3
:1005C000F62E642F8C810E94A4018D818F3F19F03B
:1005D00060E00E94A4018F850F2D10E084FF25C0EC
:1005E0006E0187E0C80ED11CE12CF12CB8010E2C55
:1005F00002C0759567950A94E2F76170F6018191E2
:100600006F010E94A401FFEFEF1AFF0A88E0E816CD
:10061000F10461F7CE01DF91CF911F910F91FF900F
:10062000EF90DF90CF900C94D401B80184E07595E1
:1006300067958A95E1F7CE010E94AA026F2DCE013F
:10064000DF91CF911F910F91FF90EF90DF90CF90AE
:100650000C94AA0241E00E94D70281E090E0089544
:1006600040E00C94D70261E00E9430038BE39FE1ED
:100670000197F1F70895CF92DF92EF92FF920F93D7
:100680001F93CF93DF93EB017B0124E0E20EF11C7B
:100690008B016C01C61AD70AC601800F911F0E94F8
:1006A0002319F80181938F01EE15FF05A9F7CE01FB
:1006B000DF91CF911F910F91FF90EF90DF90CF903E
:1006C000089562EE72E080E090E00E943B0380912A
:1006D000E2029091E302A091E402B091E5028093DE
:1006E000BE029093BF02A093C002B093C10266EE17
:1006F00072E084E090E00E943B038091E6029091DA
:10070000E702A091E802B091E9028093BA029093C7
:10071000BB02A093BC02B093BD0262EC72E088E021
:1007200090E00E943B038091C2029091C302A0918D
:10073000C402B091C5028093DE029093DF02A093C1
:10074000E002B093E1026EEC72E080E190E00E9482
:100750003B038091CE029091CF02A091D002B09144
:10076000D1028093DA029093DB02A093DC02B09373
:10077000DD026AEC72E080E290E00E943B0380912F
:10078000CA029091CB02A091CC02B091CD0280938D
:10079000D6029093D702A093D802B093D9020895BD
:1007A000AF92BF92CF92DF92EF92FF920F931F937F
:1007B000CF93DF931F92CDB7DEB75C017B018B0136
:1007C0006C0184E0C80ED11CF80161918F01C50154
:1007D00069830E9423196981681719F0C5010E9475
:1007E0002B19FFEFAF1ABF0AAC14BD0469F7C7019C
:1007F0000F90DF91CF911F910F91FF90EF90DF90BD
:10080000CF90BF90AF9008958F929F92AF92BF927A
:10081000CF92DF92EF92FF92CF93DF93CDB7DEB707
:100820002C970FB6F894DEBF0FBECDBF6AE372E01F
:10083000CE0107960E94E1006AE372E0CE010196C4
:100840000E94E10060E080E00E941B0A8091C602E5
:100850009091C702009729F449E050E067E272E006
:1008600006C0019741F449E050E061E372E0CE0137
:1008700007960E949C00CE0107960E94120A809162
:10088000C8029091C902009729F447E050E06BE359
:1008900072E006C0019741F447E050E063E472E083
:1008A000CE0101960E949C00CE0101960E94120A80
:1008B00061E080E00E941B0A88E092E00E94440A06
:1008C0006091D2027091D3028091D4029091D502AE
:1008D00041E050E00E94460AC090BE02D090BF02A4
:1008E000E090C002F090C102A70196016091D2028F
:1008F0007091D3028091D4029091D5020E94DB14B2
:100900004B015C01A70196016091DE027091DF024C
:100910008091E0029091E1020E94DB149B01AC0106
:10092000C501B4010E94481520E030E048EC52E4D3
:100930000E9465186B017C012DEC3CEC4CEC5DE3F6
:100940000E94FF1787FD09C0C0920A03D0920B03D3
:10095000E0920C03F0920D0308C010920A0310926B
:100960000B0310920C0310920D0323E333E348ECC6
:1009700052E460910A0370910B0380910C039091F3
:100980000D030E94E915181664F480E090E0A8ECCD
:10099000B2E480930A0390930B03A0930C03B093EB
:1009A0000D038BE492E00E94440A60910A03709167
:1009B0000B0380910C0390910D0340E050E00E94E6
:1009C000460A20E030E040E151E460910A03709172
:1009D0000B0380910C0390910D030E94FF1787FF7A
:1009E00004C089E392E00E94440A81E592E00E94FB
:1009F000440A6CE271E080E090E00E94260281E00F
:100A000090E09093EB028093EA02CE0101960E945F
:100A1000DC00CE0107960E94DC002C960FB6F894FD
:100A2000DEBF0FBECDBFDF91CF91FF90EF90DF9083
:100A3000CF90BF90AF909F908F9008958F929F928C
:100A4000AF92BF92CF92DF92EF92FF9280E48093B9
:100A50007C0080917A00806480937A0080917A0093
:100A600086FDFCCF609178008091790070E0782B52
:100A70007093090360930803072E000C880B990BF1
:100A80000E94061820E030E040EA50E40E94651819
:100A900020E030E040E85AE30E9465186B017C01D9
:100AA00060930403709305038093060390930703F8
:100AB0008090D6029090D702A090D802B090D90230
:100AC0002091DA023091DB024091DC025091DD028C
:100AD000C501B4010E94DC149B01AC01C501B40145
:100AE0000E9448159B01AC01C701B6010E94481540
:100AF0006B017C012CEE31E548EB5DE30E94FF17B2
:100B000087FD09C0C092D202D092D302E092D402F3
:100B1000F092D50208C01092D2021092D302109225
:100B2000D4021092D502FF90EF90DF90CF90BF904B
:100B3000AF909F908F900895CF92DF92EF92FF92A7
:100B4000CF93DF93CDB7DEB72C970FB6F894DEBF07
:100B50000FBECDBF0E941E0562E087E193E00E94B8
:100B6000740969E372E0CE0107960E94E10063E533
:100B700072E0CE0101960E94E100AE01495F5F4F35
:100B8000BE016F5F7F4F80E090E00E94300ACE018F
:100B900001960E94DC00CE0107960E94DC00609165
:100BA000D2027091D3028091D4029091D50242E09A
:100BB00050E00E94460A60ED77E080E090E00E94FD
:100BC000260265E372E0CE0107960E94E1006AE525
:100BD00072E0CE0101960E94E100AE01495F5F4FD5
:100BE000BE016F5F7F4F80E090E00E94300ACE012F
:100BF00001960E94DC00CE0107960E94DC0069E3AA
:100C000072E0CE0107960E94E10066E672E0CE0136
:100C100001960E94E100AE01495F5F4FBE016F5F28
:100C20007F4F81E090E00E94300ACE0101960E9441
:100C3000DC00CE0107960E94DC0064EC79E080E0E5
:100C400090E00E942602C090D202D090D302E090A1
:100C5000D402F090D50220E030E048E951E4C70129
:100C6000B6010E94FF1787FF43C080E090E0A0E438
:100C7000B1E48093BE029093BF02A093C002B093F0
:100C8000C10283E393E3A3E5B1E48093DE02909392
:100C9000DF02A093E002B093E10280E090E0A8E4DC
:100CA000B1E48093BA029093BB02A093BC02B093CC
:100CB000BD026EEB72E080E090E00E94D0036AEB30
:100CC00072E084E090E00E94D0036EED72E088E074
:100CD00090E00E94D00387E193E00E94330366E333
:100CE00072E0CE0107960E94E10066E772E096C0CE
:100CF00020E030E044E052E4C701B6010E94FF1753
:100D000087FF43C080E090E0A0ECB1E48093BE0296
:100D10009093BF02A093C002B093C10283E393E318
:100D2000A3EDB1E48093DE029093DF02A093E00292
:100D3000B093E10280E090E0A8ECB1E48093BA02C5
:100D40009093BB02A093BC02B093BD026EEB72E025
:100D500080E090E00E94D0036AEB72E084E090E0D3
:100D60000E94D0036EED72E088E090E00E94D00314
:100D700087E193E00E94330366E372E0CE010796B9
:100D80000E94E10064E972E049C026E636E644E0EC
:100D900052E4C701B6010E94E91518160CF07AC09A
:100DA00080E090E0A0E4B2E48093BE029093BF02A2
:100DB000A093C002B093C1028AE999E9A9E5B2E41F
:100DC0008093DE029093DF02A093E002B093E102F1
:100DD00080E090E0A8E4B2E48093BA029093BB0272
:100DE000A093BC02B093BD026EEB72E080E090E095
:100DF0000E94D0036AEB72E084E090E00E94D0038E
:100E00006EED72E088E090E00E94D00366E372E04D
:100E1000CE0107960E94E10061EA72E0CE010196E0
:100E20000E94E100AE01495F5F4FBE016F5F7F4FDF
:100E300080E090E00E94300ACE0101960E94DC0022
:100E4000CE0107960E94DC0069E372E0CE010796AE
:100E50000E94E10063E872E0CE0101960E94E10089
:100E6000AE01495F5F4FBE016F5F7F4F81E090E051
:100E70000E94300ACE0101960E94DC00CE01079646
:100E80000E94DC0064EC79E080E090E00E942602A1
:100E90000E9461032C960FB6F894DEBF0FBECDBF43
:100EA000DF91CF91FF90EF90DF90CF9008954F9218
:100EB0005F926F927F92AF92BF92CF92DF92EF924A
:100EC000FF920F931F93CF93DF938CE00E947B01DF
:100ED0008C0180910A0190910B010817190751F0BC
:100EE0000E946F01609300037093010380930203DB
:100EF000909303030E946F01C0900003D090010300
:100F0000E0900203F0900303DC01CB018C199D09F2
:100F1000AE09BF098C349105A105B10560F00E94AE
:100F20006F01609300037093010380930203909319
:100F30000303E80102C0C1E0D0E010930B0100936D
:100F40000A018CE00E947B018C0180910801909144
:100F500009010817190751F00E946F016093FC0204
:100F60007093FD028093FE029093FF020E946F0136
:100F7000C090FC02D090FD02E090FE02F090FF02D3
:100F8000DC01CB018C199D09AE09BF09893B9B404F
:100F9000A105B10560F00E946F016093FC0270939F
:100FA000FD028093FE029093FF02580103C0AA2421
:100FB000A394B12C10930901009308018BE00E94C7
:100FC0007B017C018091060190910701E816F906EA
:100FD00051F00E946F016093F8027093F9028093C0
:100FE000FA029093FB020E946F010091F8021091A7
:100FF000F9022091FA023091FB02DC01CB01801B47
:10100000910BA20BB30B8C349105A105B10560F0D7
:101010000E946F016093F8027093F9028093FA02C4
:101020009093FB02870102C001E010E0F0920701FB
:10103000E09206018BE00E947B017C01809104011B
:1010400090910501E816F90651F00E946F01609336
:10105000F4027093F5028093F6029093F7020E94D7
:101060006F014090F4025090F5026090F60270908B
:10107000F702DC01CB0184199509A609B709893B60
:101080009B40A105B10560F00E946F016093F402DE
:101090007093F5028093F6029093F702670103C004
:1010A000CC24C394D12CF0920501E09204018AE093
:1010B0000E947B017C018091020190910301E8165E
:1010C000F90651F00E946F016093F0027093F102F3
:1010D0008093F2029093F3020E946F014090F0021D
:1010E0005090F1026090F2027090F302DC01CB01AB
:1010F00084199509A609B7098C349105A105B10594
:1011000060F00E946F016093F0027093F10280938F
:10111000F2029093F302970102C021E030E0F092D6
:101120000301E0920201AB2809F58091EA02909157
:10113000EB028230910519F485E090E06CC08330B9
:10114000910519F486E090E066C08430910519F4A9
:1011500087E090E060C08130910519F48AE090E06A
:101160005AC00B9701F58CE090E055C0012B01F5BA
:101170008091EA029091EB028230910519F483E0AC
:1011800090E049C08330910519F484E090E043C0B9
:101190008430910519F48BE090E03DC00B9729F461
:1011A0008EE090E038C0012B19F482E090E033C06B
:1011B000CD2819F489E090E02EC0232B99F480917A
:1011C000EA029091EB029C01225031092330310553
:1011D00030F08B30910519F08E30910509F581E0E2
:1011E00090E019C0CD2BF1F48091EA029091EB02CE
:1011F0009C012250310923303105E0F28B309105FA
:10120000C9F28E309105B1F2019719F488E090E0AF
:1012100002C08DE090E0909301018093000102C034
:10122000CD2B91F3DF91CF911F910F91FF90EF9014
:10123000DF90CF90BF90AF907F906F905F904F9076
:101240000895009769F0FC0101900020E9F73197BB
:10125000AF01481B590BBC0187E193E00C94F600E9
:1012600080E090E008958F929F92AF92BF920F938B
:101270001F93CF93DF93CDB7DEB7A1970FB6F89446
:10128000DEBF0FBECDBF19A2423008F44AE08E0186
:101290000F5D1F4F842E912CA12CB12CA501940120
:1012A0000E94B314E62FB901CA0101501109EA30B6
:1012B00014F4E05D01C0E95CD801EC93232B242BEE
:1012C000252B61F7C8010E942109A1960FB6F89459
:1012D000DEBF0FBECDBFDF91CF911F910F91BF90A9
:1012E000AF909F908F900895EF92FF920F931F936E
:1012F000CF93DF93EC01623018F08F8588608F8781
:101300006B8B1C8A80E48D8B80E18E8B80E58F8BCC
:1013100061E08C810E94EA018D818F3F19F061E0CC
:101320000E94EA0161E08E810E94EA017E0187E06D
:10133000E80EF11C00E010E08F8584FD03C084E01E
:1013400090E002C088E090E0081719074CF461E0D3
:10135000F70181917F010E94EA010F5F1F4FECCFDF
:101360008BE39DE00197F1F760E08C810E94A4017E
:1013700060E08E810E94A4018D818F3F19F060E0B2
:101380000E94A4016F8564FD1DC063E0CE010E9430
:10139000AA020BE416E4C8010197F1F763E0CE015D
:1013A0000E94AA02C8010197F1F763E0CE010E94F2
:1013B000AA0283E592E00197F1F762E0CE010E9474
:1013C000AA0216C06062CE010E9430038BE496E44C
:1013D0000197F1F76F856062CE010E94300383E5CB
:1013E00092E00197F1F76F856062CE010E943003B1
:1013F0006F856062CE010E94300384E0888B6CE0D0
:10140000CE010E943003CE010E94330382E0898B1B
:1014100066E0CE01DF91CF911F910F91FF90EF9089
:101420000C943003FC01448155816081718187E116
:1014300093E00C94F600643008F063E090912A0386
:10144000691710F06FEF690FE62FF0E0E95EFC4FCF
:101450009489682F690F606887E193E00C943003EA
:101460000F931F93CF93DF938B01EA01682F80E0E6
:101470000E941B0AC8010E94120ACE01DF91CF917F
:101480001F910F910C94120A0C9421094F925F92B4
:101490006F927F928F929F92AF92BF92CF92DF9284
:1014A000EF92FF926B017C01B42E9B01AC010E9474
:1014B000EE15882319F08EEA92E027C02601370145
:1014C000E89477F82FEF3FEF4FE75FE7C301B201F2
:1014D0000E94EE1581110DC02FEF3FEF4FE75FE740
:1014E000C301B2010E94FF1718161CF482EB92E0B0
:1014F0000CC02FEF3FEF4FE75FE4C701B6010E943A
:10150000E915181684F486EB92E0FF90EF90DF90D7
:10151000CF90BF90AF909F908F907F906F905F9093
:101520004F900C9421092FEF3FEF4FE75FECC7017D
:10153000B6010E94FF1787FDE6CF20E030E0A90149
:10154000C701B6010E94FF1787FF11C0E091170382
:10155000F09118030190F081E02D6DE287E193E0B6
:1015600009954C01F7FAF094F7F8F09402C0812C39
:10157000912CA12C60E070E080E09FE3AB1440F47C
:1015800020E030E040E251E40E944815A394F6CFF9
:101590009B01AC01C701B6010E94DC142B013C0188
:1015A0000E94BA156B017C010E9404189B01AC01DA
:1015B000C301B2010E94DB142B013C014AE0C701C8
:1015C000B6010E9433097C01E80CF91CBB2031F004
:1015D00084E792E00E942109E80EF91EDB2CDD2051
:1015E00021F120E030E040E251E4C301B2010E9469
:1015F00065182B013C010E94BA154B01A12CB12C9E
:101600004AE0C501B4010E943309E80EF91EC50184
:10161000B4010E9404189B01AC01C301B2010E94F5
:10162000DB142B013C01DA94DACFC701FF90EF9075
:10163000DF90CF90BF90AF909F908F907F906F90F2
:101640005F904F900895CF93DF93CDB7DEB72C977F
:101650000FB6F894DEBF0FBECDBF789484B582601C
:1016600084BD84B5816084BD85B5826085BD85B546
:10167000816085BD80916E00816080936E001092C4
:10168000810080918100826080938100809181003F
:1016900081608093810080918000816080938000D0
:1016A0008091B10084608093B1008091B00081602E
:1016B0008093B00080917A00846080937A0080915A
:1016C0007A00826080937A0080917A0081608093B2
:1016D0007A0080917A00806880937A001092C1002D
:1016E00062E08AE00E94EA0162E08BE00E94EA0187
:1016F00062E08CE00E94EA0160E080E00E94EA0182
:1017000061E08DE00E94EA0161E083E00E94EA016D
:101710008CE00E947B01892B61F560ED77E080E031
:1017200090E00E94260280E09EE0A4ECB7E4809363
:10173000DA029093DB02A093DC02B093DD0280E03A
:1017400090E5ABE1B6E48093D6029093D702A093E4
:10175000D802B093D9026AED72E080E190E00E9475
:10176000D00366ED72E080E290E00E94D0030E9418
:101770009C0562EE72E080E090E00E943B03809165
:10178000E2029091E302A091E402B091E50280931D
:10179000BE029093BF02A093C002B093C10266EE56
:1017A00072E084E090E00E943B038091E602909119
:1017B000E702A091E802B091E9028093BA02909307
:1017C000BB02A093BC02B093BD0262EC72E088E061
:1017D00090E00E943B038091C2029091C302A091CD
:1017E000C402B091C5028093DE029093DF02A09301
:1017F000E002B093E1026EEC72E080E190E00E94C2
:101800003B038091CE029091CF02A091D002B09183
:10181000D1028093DA029093DB02A093DC02B093B2
:10182000DD026AEC72E080E290E00E943B0380916E
:10183000CA029091CB02A091CC02B091CD028093CC
:10184000D6029093D702A093D802B093D9026AE14E
:1018500071E0CE0101960E94E10087E193E00E94D1
:10186000330362E087E193E00E947409CE010196A0
:101870000E94120A64EF71E080E090E00E9426026C
:101880000DE010E068E187E193E00E94300366E933
:1018900070E080E090E00E9426020150110991F76B
:1018A0000DE010E06CE187E193E00E94300366E90F
:1018B00070E080E090E00E9426020150110991F74B
:1018C00064EF71E080E090E00E942602CE01019674
:1018D0000E94DC0062E087E193E00E94740988E2E4
:1018E00091E00E94440A61E080E00E941B0A86E3C6
:1018F00091E00E94440A6091BA027091BB0280910B
:10190000BC029091BD0241E050E00E94460A8BE388
:1019100091E00E94440A6091BE027091BF028091E2
:10192000C0029091C10241E050E00E94460A0E942C
:101930001E052091D2023091D3024091D4025091E1
:10194000D5026091DE027091DF028091E0029091F9
:10195000E1020E94DB146B017C0120E030E0A90170
:101960000E94E91518165CF420E030E040E251E4F2
:10197000C701B6010E94E915181654F00BC020E00B
:1019800030E040E251ECC701B6010E94FF1787FD2D
:101990000E949C0568EB7BE080E090E00E942602BC
:1019A00002E010E02CE0222E312C3BE0C32ED12CA3
:1019B00047E0A42EB12C83E0E82EF12C95E0892E8F
:1019C000912C8091000190910101019709F05FC075
:1019D0000E941E050E9404044090D2025090D3023F
:1019E0006090D4027090D5022091BE023091BF0267
:1019F0004091C0025091C102C301B2010E94FF1781
:101A00001816B4F08091EC029091ED02019781F4E8
:101A10001092C9021092C80260E083E00E94A40103
:101A20001092ED021092EC0260E08DE00E94A401A1
:101A30002091BA023091BB024091BC025091BD028C
:101A4000C301B2010E94E91587FD1EC08091EC021E
:101A50009091ED02892BC1F46090C6027090C7028C
:101A600081E06816710481F47092C9026092C80224
:101A700061E083E00E94A4017092ED026092EC02AA
:101A800061E08DE00E94A4010E9457079ACF0E9456
:101A90005707E0910001F09101013197EE30F10517
:101AA00008F03AC7EC5CFF4F0C94D5140E94040474
:101AB00081E090E09093EB028093EA029093EF0232
:101AC0008093EE0229C760E080E00E941B0A80E458
:101AD00091E00E94440A61E080E00E941B0A81E5D7
:101AE00091E00E94440A6091E6027091E7028091C1
:101AF000E8029091E90241E050E00E94460A10930A
:101B0000EB020093EA021093EF020093EE02FEC68E
:101B100060E080E00E941B0A80E491E00E94440A99
:101B200061E080E00E941B0A8EE591E00E94440A79
:101B30006091E2027091E3028091E4029091E502EB
:101B400041E050E00E94460AF092EB02E092EA0285
:101B5000F092EF02E092EE02D9C660E080E00E94CF
:101B60001B0A80E491E00E94440A61E080E00E9448
:101B70001B0A8BE691E00E94440A6091DE0270919C
:101B8000DF028091E0029091E10241E050E00E948A
:101B9000460A84E090E0B2C6109301010093000170
:101BA0009092EB028092EA029092EF028092EE0213
:101BB00066E970E080E090E00E94260260E080E04C
:101BC0000E941B0A88E791E00E94440A61E080E0DD
:101BD0000E941B0A81E591E00E94440A6091E6029E
:101BE0007091E7028091E8029091E90241E050E0B3
:101BF0000E94460A8091E6029091E702A091E802D5
:101C0000B091E9028093BA029093BB02A093BC0208
:101C1000B093BD0260ED77E080E090E00E94260284
:101C200080910001909101010297029708F059C03C
:101C30000E9457078AE00E947B01892BE1F46AEF3A
:101C400070E080E090E00E9426022DEC3CEC4CEC31
:101C50005DE36091BA027091BB028091BC029091E9
:101C6000BD020E94DC146093BA027093BB028093A1
:101C7000BC029093BD028BE00E947B01892BE1F4B2
:101C80006AEF70E080E090E00E9426022DEC3CECD0
:101C90004CEC5DE36091BA027091BB028091BC0292
:101CA0009091BD020E94DB146093BA027093BB0254
:101CB0008093BC029093BD0261E080E00E941B0A09
:101CC00081E591E00E94440A6091BA027091BB02E2
:101CD0008091BC029091BD0241E050E00E94460A12
:101CE0009FCF6AEB72E084E090E00E94D00387E12E
:101CF00093E00E94330362EE72E080E090E00E9485
:101D00003B038091E2029091E302A091E402B09142
:101D1000E5028093BE029093BF02A093C002B093ED
:101D2000C10266EE72E084E090E00E943B03809185
:101D3000E6029091E702A091E802B091E902809357
:101D4000BA029093BB02A093BC02B093BD0262ECB6
:101D500072E088E090E00E943B038091C202909183
:101D6000C302A091C402B091C5028093DE02909399
:101D7000DF02A093E002B093E10269E372E0CE01DA
:101D800001960E94E10069E871E0CE0107960E9489
:101D9000E100AE014F5F5F4FBE01695F7F4F80E0A2
:101DA00090E00E94300ACE0107960E94DC00CE012E
:101DB00001960E94DC0060ED77E080E090E00E94F8
:101DC00026021093010100930001A6C510930101A2
:101DD0000093000186E090E09093EB028093EA028A
:101DE0009093EF028093EE0266E970E080E090E06D
:101DF0000E94260260E080E00E941B0A88E791E0D2
:101E00000E94440A61E080E00E941B0A8EE591E096
:101E10000E94440A6091E2027091E3028091E40220
:101E20009091E50241E050E00E94460A8091E20272
:101E30009091E302A091E402B091E5028093BE028A
:101E40009093BF02A093C002B093C10260ED77E00F
:101E500080E090E00E9426028091000190910101B3
:101E60000297029708F059C00E9457078AE00E9423
:101E70007B01892BE1F464EF71E080E090E00E9447
:101E800026022DEC3CEC4CEC5DE36091BE027091BF
:101E9000BF028091C0029091C1020E94DC14609345
:101EA000BE027093BF028093C0029093C1028BE088
:101EB0000E947B01892BE1F464EF71E080E090E007
:101EC0000E9426022DEC3CEC4CEC5DE36091BE02DE
:101ED0007091BF028091C0029091C1020E94DB14F8
:101EE0006093BE027093BF028093C0029093C102C0
:101EF00061E080E00E941B0A8EE591E00E94440AA6
:101F00006091BE027091BF028091C0029091C102A7
:101F100041E050E00E94460A9FCF6EEB72E080E005
:101F200090E00E94D00387E193E00E94330362EEC9
:101F300072E080E090E00E943B038091E202909189
:101F4000E302A091E402B091E5028093BE02909377
:101F5000BF02A093C002B093C10266EE72E084E0BB
:101F600090E00E943B038091E6029091E702A091ED
:101F7000E802B091E9028093BA029093BB02A09369
:101F8000BC02B093BD0262EC72E088E090E00E9477
:101F90003B038091C2029091C302A091C402B09110
:101FA000C5028093DE029093DF02A093E002B0931B
:101FB000E10269E372E0CE0101960E94E10069E866
:101FC00071E0CE0107960E94E100AE014F5F5F4FC6
:101FD000BE01695F7F4F80E090E00E94300ACE0131
:101FE00007960E94DC00CE0101960E94DC0060EDA5
:101FF00077E080E090E00E942602F0920101E092FA
:1020000000018AC41093010100930001B092EB0219
:10201000A092EA02B092EF02A092EE0266E970E0AE
:1020200080E090E00E94260260E080E00E941B0AAF
:1020300088E791E00E94440A61E080E00E941B0A68
:102040008BE691E00E94440A6091C2027091C30243
:102050008091C4029091C50241E050E00E94460A7E
:102060008091C2029091C302A091C402B091C502B6
:102070008093DE029093DF02A093E002B093E1022E
:1020800060ED77E080E090E00E9426028091000100
:10209000909101010297029708F059C00E945707DA
:1020A0008AE00E947B01892BE1F46AEF70E080E016
:1020B00090E00E9426022DEC3CEC4CEC5DE360913C
:1020C000DE027091DF028091E0029091E1020E94B5
:1020D000DC146093DE027093DF028093E002909341
:1020E000E1028BE00E947B01892BE1F46AEF70E052
:1020F00080E090E00E9426022DEC3CEC4CEC5DE38D
:102100006091DE027091DF028091E0029091E10225
:102110000E94DB146093DE027093DF028093E00282
:102120009093E10261E080E00E941B0A8BE691E05F
:102130000E94440A6091DE027091DF028091E00209
:102140009091E10241E050E00E94460A9FCF6EED7F
:1021500072E088E090E00E94D00387E193E00E9463
:10216000330362EE72E080E090E00E943B038091D6
:10217000E2029091E302A091E402B091E502809323
:10218000BE029093BF02A093C002B093C10266EE5C
:1021900072E084E090E00E943B038091E60290911F
:1021A000E702A091E802B091E9028093BA0290930D
:1021B000BB02A093BC02B093BD0262EC72E088E067
:1021C00090E00E943B038091C2029091C302A091D3
:1021D000C402B091C5028093DE029093DF02A09307
:1021E000E002B093E10269E372E0CE0101960E9441
:1021F000E10069E871E0CE0107960E94E100AE01BE
:102200004F5F5F4FBE01695F7F4F80E090E00E94AB
:10221000300ACE0107960E94DC00CE0101960E9492
:10222000DC0060ED77E080E090E00E94260284E030
:1022300090E045C368E372E0CE0101960E94E100A0
:1022400069E971E0CE0107960E94E100AE014F5F9F
:102250005F4FBE01695F7F4F80E090E00E94300ACF
:10226000CE0107960E94DC00CE0101960E94DC00A0
:1022700067E372E0CE0101960E94E10069EA71E035
:10228000CE0107960E94E100AE014F5F5F4FBE0195
:10229000695F7F4F81E090E00E94300ACE0107968F
:1022A0000E94DC00CE0101960E94DC0068EB7BE01E
:1022B00080E090E00E94260281E090E0909301018E
:1022C000809300018091EE029091EF029093EB02D7
:1022D0008093EA0221C369E372E0CE0101960E9475
:1022E000E10067EB71E0CE0107960E94E100AE01CC
:1022F0004F5F5F4FBE01695F7F4F80E090E00E94BB
:10230000300ACE0107960E94DC00CE0101960E94A1
:10231000DC0066E372E0CE0101960E94E10067EC0A
:1023200071E0CE0107960E94E100AE014F5F5F4F62
:10233000BE01695F7F4F81E090E00E94300ACE01CC
:1023400007960E94DC00CE0101960E94DC00E4C2E8
:1023500068E372E0CE0101960E94E10064ED71E055
:10236000CE0107960E94E100AE014F5F5F4FBE01B4
:10237000695F7F4F80E090E00E94300ACE010796AF
:102380000E94DC00CE0101960E94DC0069E372E04D
:10239000CE0101960E94E10063EE71E0CE01079646
:1023A0000E94E100AE014F5F5F4FBE01695F7F4F4A
:1023B00081E090E00E94300ACE0107960E94DC0086
:1023C000CE0101960E94DC0060ED77E080E090E0B5
:1023D0000E942602772473948091C8029091C902CA
:1023E000892B09F0712C472C512C5092C902409234
:1023F000C802672D83E00E94A4015092ED02409232
:10240000EC0281E090E02091C6023091C702232BBC
:1024100011F080E090E09093C7028093C602672D90
:102420008DE00E94A40149C260E080E00E941B0A86
:1024300083EF91E00E94440A6091DA027091DB021E
:102440008091DC029091DD0241E050E00E94460A5A
:1024500061E080E00E941B0A8CEF91E00E94440A38
:102460006091D6027091D7028091D8029091D902E2
:1024700041E050E00E94460AD092EB02C092EA028C
:10248000D092EF02C092EE0241C21093010100937C
:1024900000013092EB022092EA023092EF02209289
:1024A000EE0266E970E080E090E00E94260287E19B
:1024B00093E00E94330360E080E00E941B0A87E003
:1024C00092E00E94440A6091D2027091D3028091FE
:1024D000D4029091D50241E050E00E94460A61E0AA
:1024E00080E00E941B0A8DE092E00E94440A609105
:1024F000CE027091CF028091D0029091D10241E042
:1025000050E00E94460A8091CE029091CF02A091A5
:10251000D002B091D1028093DA029093DB02A093B3
:10252000DC02B093DD0260ED77E080E090E00E9495
:10253000260280910001909101010297029708F014
:1025400073C00E9457078AE00E947B01892BE1F447
:102550006AEF70E080E090E00E94260220E030E028
:1025600040E85FE36091DA027091DB028091DC0267
:102570009091DD020E94DC146093DA027093DB021A
:102580008093DC029093DD028BE00E947B01892B1B
:10259000E1F46AEF70E080E090E00E94260220E023
:1025A00030E040E85FE36091DA027091DB028091F5
:1025B000DC029091DD020E94DB146093DA027093DA
:1025C000DB028093DC029093DD020E941E0560E036
:1025D00080E00E941B0A87E092E00E94440A60911A
:1025E000D2027091D3028091D4029091D50242E040
:1025F00050E00E94460A61E080E00E941B0A8DE0E4
:1026000092E00E94440A6091DA027091DB028091AC
:10261000DC029091DD0241E050E00E94460A64E64F
:1026200070E080E090E083CF6AED72E080E190E0BE
:102630000E94D00387E193E00E9433036EEC72E0C6
:1026400080E190E00E943B038091CE029091CF0206
:10265000A091D002B091D1028093DA029093DB0274
:10266000A093DC02B093DD0269E372E0CE01019633
:102670000E94E10069E871E0CE0107960E94E10046
:10268000AE014F5F5F4FBE01695F7F4F80E090E01A
:102690000E94300ACE0107960E94DC00CE0101960E
:1026A0000E94DC0060ED77E080E090E00E9426026E
:1026B000109301010093000187E193E00E9433032E
:1026C00060E080E00E941B0A87E092E00E94440ADA
:1026D0006091D2027091D3028091D4029091D50280
:1026E00041E050E00E94460A61E080E00E941B0A3F
:1026F0008CEF91E00E94440A6091CA027091CB0273
:102700008091CC029091CD0241E050E00E94460AB7
:102710008091CA029091CB02A091CC02B091CD02DF
:102720008093D6029093D702A093D802B093D90297
:1027300060ED77E080E090E00E9426028091000149
:10274000909101010297029708F073C00E94570709
:102750008AE00E947B01892BE1F46AEF70E080E05F
:1027600090E00E94260220E030E040E85FE36091C4
:10277000D6027091D7028091D8029091D9020E941E
:10278000DC146093D6027093D7028093D8029093A2
:10279000D9028BE00E947B01892BE1F46AEF70E0A3
:1027A00080E090E00E94260220E030E040E85FE315
:1027B0006091D6027091D7028091D8029091D9028F
:1027C0000E94DB146093D6027093D7028093D802E4
:1027D0009093D9020E941E0560E080E00E941B0ACF
:1027E00087E092E00E94440A6091D2027091D30285
:1027F0008091D4029091D50242E050E00E94460AB6
:1028000061E080E00E941B0A8CEF91E00E94440A84
:102810006091D6027091D7028091D8029091D9022E
:1028200041E050E00E94460A64E670E080E090E0FB
:1028300083CF66ED72E080E290E00E94D00387E1F2
:1028400093E00E9433036AEC72E080E290E00E9421
:102850003B038091CA029091CB02A091CC02B0912F
:10286000CD028093D6029093D702A093D802B09362
:10287000D90269E372E0CE0101960E94E10069E8A5
:1028800071E0CE0107960E94E100AE014F5F5F4FFD
:10289000BE01695F7F4F80E090E00E94300ACE0168
:1028A00007960E94DC00CE0101960E94DC0060EDDC
:1028B00077E080E090E00E94260281E090E0909333
:1028C00001018093000128C087E193E00E94330357
:1028D00060E080E00E941B0A86E192E00E94440AC8
:1028E00061E080E00E941B0A41E050E06DEC7CEC6E
:1028F0008CE89FE30E94460A8EE090E09093EB0202
:102900008093EA029093EF028093EE0266E970E012
:1029100080E090E00E94260280E090E0892B09F49C
:1029200050C80E94000047C8E7E1F3E0138212821A
:1029300086E191E09183808389E084838FEF8583B2
:1029400088E0868387E0878386E0808785E08187CB
:1029500084E082871386148615861686178661E0C2
:10296000CF010C947409A1E21A2EAA1BBB1BFD0116
:102970000DC0AA1FBB1FEE1FFF1FA217B307E4075E
:10298000F50720F0A21BB30BE40BF50B661F771FB6
:10299000881F991F1A9469F7609570958095909596
:1029A0009B01AC01BD01CF010895EE0FFF1F059003
:1029B000F491E02D09945058BB27AA270E94F314E4
:1029C0000C94E9180E94DB1838F00E94E21820F0FD
:1029D00039F49F3F19F426F40C94D8180EF4E095BE
:1029E000E7FB0C94D218E92F0E94FA1858F3BA1793
:1029F000620773078407950720F079F4A6F50C9415
:102A00001C190EF4E0950B2EBA2FA02D0B01B90165
:102A100090010C01CA01A0011124FF27591B99F054
:102A2000593F50F4503E68F11A16F040A22F232F60
:102A3000342F4427585FF3CF469537952795A795B0
:102A4000F0405395C9F77EF41F16BA0B620B730B57
:102A5000840BBAF09150A1F0FF0FBB1F661F771FC8
:102A6000881FC2F70EC0BA0F621F731F841F48F47D
:102A7000879577956795B795F7959E3F08F0B0CF06
:102A80009395880F08F09927EE0F979587950895ED
:102A90000E945C150C94E9180E94E21858F00E94FC
:102AA000DB1840F029F45F3F29F00C94D218511143
:102AB0000C941D190C94D8180E94FA1868F39923E5
:102AC000B1F3552391F3951B550BBB27AA2762172A
:102AD0007307840738F09F5F5F4F220F331F441F37
:102AE000AA1FA9F335D00E2E3AF0E0E832D091506B
:102AF0005040E695001CCAF72BD0FE2F29D0660F58
:102B0000771F881FBB1F261737074807AB07B0E89A
:102B100009F0BB0B802DBF01FF2793585F4F3AF0A0
:102B20009E3F510578F00C94D2180C941D195F3F0C
:102B3000E4F3983ED4F3869577956795B795F79526
:102B40009F5FC9F7880F911D9695879597F908950E
:102B5000E1E0660F771F881FBB1F621773078407AA
:102B6000BA0720F0621B730B840BBA0BEE1F88F7B9
:102B7000E09508950E94021988F09F5798F0B92FA8
:102B80009927B751B0F0E1F0660F771F881F991FA2
:102B90001AF0BA95C9F714C0B13091F00E941C190F
:102BA000B1E008950C941C19672F782F8827B85F1F
:102BB00039F0B93FCCF3869577956795B395D9F7FA
:102BC0003EF490958095709561957F4F8F4F9F4F04
:102BD00008950E94411808F48FEF08950E9441184B
:102BE000880B990B0895CF93DF938230910510F4F1
:102BF00082E090E0E0913103F091320320E030E098
:102C0000C0E0D0E0309711F1408151814817590759
:102C1000C0F04817590761F482819381209719F019
:102C20009B838A832BC0909332038093310326C009
:102C30002115310519F04217530718F49A01BE0106
:102C4000DF01EF010280F381E02DDCCF211531059A
:102C500009F1281B390B2430310590F412968D911F
:102C60009C9113976115710521F0FB019383828379
:102C700004C09093320380933103FD01329644C027
:102C8000FD01E20FF31F81939193225031092D939F
:102C90003C933AC020912F0330913003232B41F411
:102CA00020910E0130910F013093300320932F03B8
:102CB00020910C0130910D012115310541F42DB702
:102CC0003EB74091100150911101241B350BE0914A
:102CD0002F03F0913003E217F307A0F42E1B3F0BF4
:102CE0002817390778F0AC014E5F5F4F241735077E
:102CF00048F04E0F5F1F5093300340932F03819392
:102D0000919302C0E0E0F0E0CF01DF91CF91089510
:102D10000F931F93CF93DF93009709F48CC0FC01AE
:102D20003297138212820091310310913203011500
:102D3000110581F420813181820F931F20912F038F
:102D4000309130032817390779F5F0933003E09379
:102D50002F0371C0D80140E050E0AE17BF0750F418
:102D600012962D913C911397AD012115310509F172
:102D7000D901F3CF9D01DA01338322836081718110
:102D8000860F971F8217930769F4EC012881398118
:102D9000260F371F2E5F3F4F318320838A819B810F
:102DA00093838283452B29F4F0933203E09331031C
:102DB00042C01396FC93EE931297ED0149915991FD
:102DC0009E01240F351FE217F30771F48081918172
:102DD000840F951F029611969C938E938281938106
:102DE00013969C938E931297E0E0F0E0D801129630
:102DF0008D919C911397009719F0F8018C01F6CFF3
:102E00008D919C9198012E5F3F4F820F931F2091CF
:102E10002F03309130032817390769F4309729F4CC
:102E2000109232031092310302C013821282109367
:102E3000300300932F03DF91CF911F910F910895DD
:102E4000A0E0B0E0E6E2F7E10C943D19EC01009758
:102E500021F4CB010E94F315B8C0FC01E60FF71F67
:102E60009C0122503109E217F30708F4ACC0D901E4
:102E70000D911C91119706171707B0F00530110539
:102E800008F49FC0C80104978617970708F499C0F3
:102E900002501109061B170B019311936D937C933C
:102EA000CF010E9488168DC05B01A01AB10A4C01A7
:102EB000800E911EA0913103B091320340E050E0AA
:102EC000E12CF12C109709F44AC0A815B905D1F5E9
:102ED0006D907C901197630182E0C80ED11CCA14DA
:102EE000DB0480F1A3014A195B096A0182E0C80E84
:102EF000D11C1296BC9012971396AC91B5E0CB16EC
:102F0000D10440F0B282A38351834083D9016D93F1
:102F10007C930AC00E5F1F4FC301800F911FF90100
:102F200091838083EB2DFA2FE114F10431F0D70166
:102F30001396FC93EE93129744C0F0933203E09300
:102F400031033FC08D919C9111974817590708F4A0
:102F5000AC017D0112960D90BC91A02DB3CF809154
:102F60002F039091300388159905E1F44617570710
:102F7000C8F480910C0190910D01009741F48DB738
:102F80009EB74091100150911101841B950BE817D9
:102F9000F907C8F4F0933003E0932F03F90171832C
:102FA00060830FC0CB010E94F3157C01009759F09C
:102FB000A801BE010E94EF17CE010E948816C7012A
:102FC00004C0CE0102C080E090E0CDB7DEB7EEE0F5
:102FD0000C94591981E090E0F8940C947019FB015D
:102FE000DC0102C001900D9241505040D8F7089585
:102FF000FB01DC0101900D920020E1F708950E9491
:10300000411808F481E00895E89409C097FB3EF464
:1030100090958095709561957F4F8F4F9F4F992325
:10302000A9F0F92F96E9BB279395F69587957795A3
:103030006795B795F111F8CFFAF4BB0F11F460FF63
:103040001BC06F5F7F4F8F4F9F4F16C0882311F0BB
:1030500096E911C0772321F09EE8872F762F05C0CF
:10306000662371F096E8862F70E060E02AF09A956A
:10307000660F771F881FDAF7880F9695879597F95F
:103080000895990F0008550FAA0BE0E8FEEF1616F9
:103090001706E807F907C0F012161306E407F5074C
:1030A00098F0621B730B840B950B39F40A2661F0C0
:1030B000232B242B252B21F408950A2609F4A14063
:1030C000A6958FEF811D811D08950E9478180C949C
:1030D000E9180E94DB1838F00E94E21820F09523CE
:1030E00011F00C94D2180C94D81811240C941D19BA
:1030F0000E94FA1870F3959FC1F3950F50E0551F89
:10310000629FF001729FBB27F00DB11D639FAA273C
:10311000F00DB11DAA1F649F6627B00DA11D661F8B
:10312000829F2227B00DA11D621F739FB00DA11DAC
:10313000621F839FA00D611D221F749F3327A00D66
:10314000611D231F849F600D211D822F762F6A2F02
:1031500011249F5750409AF0F1F088234AF0EE0F67
:10316000FF1FBB1F661F771F881F91505040A9F794
:103170009E3F510580F00C94D2180C941D195F3FAE
:10318000E4F3983ED4F3869577956795B795F795D0
:10319000E7959F5FC1F7FE2B880F911D9695879548
:1031A00097F9089597F99F6780E870E060E00895C7
:1031B0009FEF80EC089500240A941616170618064F
:1031C0000906089500240A9412161306140605062B
:1031D0000895092E0394000C11F4882352F0BB0FBC
:1031E00040F4BF2B11F460FF04C06F5F7F4F8F4F1F
:1031F0009F4F089557FD9058440F551F59F05F3F5A
:1032000071F04795880F97FB991F61F09F3F79F008
:1032100087950895121613061406551FF2CF46958A
:10322000F1DF08C0161617061806991FF1CF86950C
:103230007105610508940895E894BB2766277727F0
:10324000CB0197F90895F999FECF92BD81BDF89A07
:10325000992780B50895262FF999FECF1FBA92BD00
:1032600081BD20BD0FB6F894FA9AF99A0FBE019667
:1032700008952F923F924F925F926F927F928F921A
:103280009F92AF92BF92CF92DF92EF92FF920F93F5
:103290001F93CF93DF93CDB7DEB7CA1BDB0B0FB6FF
:1032A000F894DEBF0FBECDBF09942A8839884888BC
:1032B0005F846E847D848C849B84AA84B984C88452
:1032C000DF80EE80FD800C811B81AA81B981CE0F49
:1032D000D11D0FB6F894DEBF0FBECDBFED0108952E
:0432E000F894FFCF90
:1032E400010001000100010001000100000033039E
:1032F4008000000000002A03F60042617474204D2F
:10330400616E2076312E3100555345522053657439
:1033140074696E6773004252563D004C56443D003A
:103324004754492042617474204D414E41474552EF
:103334000042525620202020202020563D004C568A
:103344004420202020202020563D004856442020A0
:103354002020202020563D004849542020454E542A
:1033640020746F20534156450053657474696E6729
:10337400732053617665642100507265737320660F
:103384006F7220332073656300746F20535441526D
:10339400542F53544F5000486F6C6420454E5420B2
:1033A400666F72203373002020746F206368616E2F
:1033B4006765210053657474696E6720737973744B
:1033C400656D00746F204D616E75616C2F4175746D
:1033D4006F21005231202020203D20005232202035
:1033E400202020203D2000564261743D00523120AF
:1033F400202020203D004669726D77617265207639
:10340400657273696F6E004D616E75616C2020206A
:10341400004155544F2020202020004F46464C495F
:103424004E4500204F4E4C494E450020536F433DBE
:1034340000250056626174203D004175746F20447C
:1034440065746563740041637469766174656420AE
:103454002E2E2E2E2E003132562053657474696E32
:1034640067730044656661756C74206C6F61646594
:10347400642E2E003234562053657474696E67735B
:10348400003438562053657474696E6773006E6136
:0A3494006E00696E66006F76660038
:00000001FF
